:1000000012C021C020C01FC01EC01DC01CC01BC00C
:100010001AC019C018C04BC016C061C014C013C0AC
:1000200012C011C010C011241FBECFE5D2E0DEBF48
:10003000CDBF20E0A0E6B0E001C01D92A236B2071D
:10004000E1F702D05BC0DCCF8AB388638ABB8AB396
:10005000897F8ABB81E087B99FEE96B913B890E893
:100060009BBF85BF78948091600090916100893C2E
:10007000910548F4DD9ADB988FE493EC0197F1F752
:1000800000C00000F0CF809160009091610080324C
:10009000934048F0DD98DB9A8FE493EC0197F1F7F9
:1000A00000C00000E0CF8BB3877D8BBBDCCF1F92FD
:1000B0000F920FB60F9211242F938F939F9384B1B9
:1000C00025B190E0922B90936100809360009F9106
:1000D0008F912F910F900FBE0F901F9018951F9228
:1000E0000F920FB60F921124CA9902C0DC9A01C078
:1000F000DC980F900FBE0F901F901895F894FFCFCB
:00000001FF
