:1000000012C021C020C01FC01EC01DC01CC01BC00C
:100010001AC019C018C017C016C015C014C013C02C
:1000200012C011C010C011241FBECFE5D2E0DEBF48
:10003000CDBF20E0A0E6B0E001C01D92A636B20719
:10004000E1F702D05BC0DCCF87B38A6487BBD4986A
:1000500083E087B987E886B913B8369A3699FECF18
:1000600084B1282F30E0309363002093620095B173
:10007000892F90E0982F88279093650080936400E3
:10008000822B932B9093610080936000813A21E052
:10009000920768F4C69AC398C1984FE78AE196E040
:1000A000415080409040E1F700C00000D6CF9C0155
:1000B000255B31402B38314068F4C39AC698C1980B
:1000C0008FE79AE126E0815090402040E1F700C0A0
:1000D0000000C3CF8435934068F0C19AC698C39896
:1000E0008FE79AE126E0815090402040E1F700C080
:1000F0000000B3CF88B3857B88BBAFCFF894FFCF28
:00000001FF
